{
  "_format": "hh3-artifact-1",
  "contractName": "ConsultationEscrow",
  "sourceName": "contracts/ConsultationEscrow/ConsultationEscrow.sol",
  "abi": [
    {
      "inputs": [
        {
          "internalType": "address",
          "name": "_doctorRegistry",
          "type": "address"
        },
        {
          "internalType": "address",
          "name": "_pythOracle",
          "type": "address"
        },
        {
          "internalType": "address",
          "name": "_pyusd",
          "type": "address"
        },
        {
          "internalType": "address",
          "name": "_usdc",
          "type": "address"
        },
        {
          "internalType": "address",
          "name": "_usdt",
          "type": "address"
        }
      ],
      "stateMutability": "nonpayable",
      "type": "constructor"
    },
    {
      "inputs": [],
      "name": "AccessControlBadConfirmation",
      "type": "error"
    },
    {
      "inputs": [
        {
          "internalType": "address",
          "name": "account",
          "type": "address"
        },
        {
          "internalType": "bytes32",
          "name": "neededRole",
          "type": "bytes32"
        }
      ],
      "name": "AccessControlUnauthorizedAccount",
      "type": "error"
    },
    {
      "inputs": [],
      "name": "ReentrancyGuardReentrantCall",
      "type": "error"
    },
    {
      "inputs": [
        {
          "internalType": "address",
          "name": "token",
          "type": "address"
        }
      ],
      "name": "SafeERC20FailedOperation",
      "type": "error"
    },
    {
      "anonymous": false,
      "inputs": [
        {
          "indexed": false,
          "internalType": "uint32",
          "name": "doctorId",
          "type": "uint32"
        },
        {
          "indexed": false,
          "internalType": "uint32",
          "name": "sessionID",
          "type": "uint32"
        },
        {
          "indexed": false,
          "internalType": "uint16",
          "name": "rating",
          "type": "uint16"
        }
      ],
      "name": "DoctorRated",
      "type": "event"
    },
    {
      "anonymous": false,
      "inputs": [
        {
          "indexed": true,
          "internalType": "uint256",
          "name": "sessionId",
          "type": "uint256"
        },
        {
          "indexed": true,
          "internalType": "address",
          "name": "doctor",
          "type": "address"
        },
        {
          "indexed": false,
          "internalType": "uint256",
          "name": "amount",
          "type": "uint256"
        }
      ],
      "name": "PaymentReleased",
      "type": "event"
    },
    {
      "anonymous": false,
      "inputs": [
        {
          "indexed": true,
          "internalType": "bytes32",
          "name": "role",
          "type": "bytes32"
        },
        {
          "indexed": true,
          "internalType": "bytes32",
          "name": "previousAdminRole",
          "type": "bytes32"
        },
        {
          "indexed": true,
          "internalType": "bytes32",
          "name": "newAdminRole",
          "type": "bytes32"
        }
      ],
      "name": "RoleAdminChanged",
      "type": "event"
    },
    {
      "anonymous": false,
      "inputs": [
        {
          "indexed": true,
          "internalType": "bytes32",
          "name": "role",
          "type": "bytes32"
        },
        {
          "indexed": true,
          "internalType": "address",
          "name": "account",
          "type": "address"
        },
        {
          "indexed": true,
          "internalType": "address",
          "name": "sender",
          "type": "address"
        }
      ],
      "name": "RoleGranted",
      "type": "event"
    },
    {
      "anonymous": false,
      "inputs": [
        {
          "indexed": true,
          "internalType": "bytes32",
          "name": "role",
          "type": "bytes32"
        },
        {
          "indexed": true,
          "internalType": "address",
          "name": "account",
          "type": "address"
        },
        {
          "indexed": true,
          "internalType": "address",
          "name": "sender",
          "type": "address"
        }
      ],
      "name": "RoleRevoked",
      "type": "event"
    },
    {
      "anonymous": false,
      "inputs": [
        {
          "indexed": true,
          "internalType": "uint256",
          "name": "sessionId",
          "type": "uint256"
        },
        {
          "indexed": true,
          "internalType": "uint32",
          "name": "doctorId",
          "type": "uint32"
        },
        {
          "indexed": true,
          "internalType": "address",
          "name": "patient",
          "type": "address"
        },
        {
          "indexed": false,
          "internalType": "uint256",
          "name": "feeUSD",
          "type": "uint256"
        },
        {
          "indexed": false,
          "internalType": "uint256",
          "name": "pyusdAmount",
          "type": "uint256"
        }
      ],
      "name": "SessionCreated",
      "type": "event"
    },
    {
      "inputs": [],
      "name": "ADMIN_ROLE",
      "outputs": [
        {
          "internalType": "bytes32",
          "name": "",
          "type": "bytes32"
        }
      ],
      "stateMutability": "view",
      "type": "function"
    },
    {
      "inputs": [],
      "name": "DEFAULT_ADMIN_ROLE",
      "outputs": [
        {
          "internalType": "bytes32",
          "name": "",
          "type": "bytes32"
        }
      ],
      "stateMutability": "view",
      "type": "function"
    },
    {
      "inputs": [
        {
          "internalType": "uint32",
          "name": "doctorId",
          "type": "uint32"
        },
        {
          "internalType": "uint256",
          "name": "consultationPayment",
          "type": "uint256"
        },
        {
          "internalType": "bytes[]",
          "name": "priceUpdateData",
          "type": "bytes[]"
        },
        {
          "internalType": "address",
          "name": "tokenAddress",
          "type": "address"
        }
      ],
      "name": "createSession",
      "outputs": [],
      "stateMutability": "payable",
      "type": "function"
    },
    {
      "inputs": [
        {
          "internalType": "uint256",
          "name": "amount",
          "type": "uint256"
        }
      ],
      "name": "depositPyusdReserve",
      "outputs": [],
      "stateMutability": "nonpayable",
      "type": "function"
    },
    {
      "inputs": [],
      "name": "doctorRegistry",
      "outputs": [
        {
          "internalType": "contract IDoctorRegistry",
          "name": "",
          "type": "address"
        }
      ],
      "stateMutability": "view",
      "type": "function"
    },
    {
      "inputs": [
        {
          "internalType": "uint32",
          "name": "doctorId",
          "type": "uint32"
        }
      ],
      "name": "getDoctorRatings",
      "outputs": [
        {
          "internalType": "uint8[]",
          "name": "",
          "type": "uint8[]"
        }
      ],
      "stateMutability": "view",
      "type": "function"
    },
    {
      "inputs": [
        {
          "internalType": "uint32",
          "name": "doctorId",
          "type": "uint32"
        }
      ],
      "name": "getDoctorSessions",
      "outputs": [
        {
          "internalType": "uint256[]",
          "name": "",
          "type": "uint256[]"
        }
      ],
      "stateMutability": "view",
      "type": "function"
    },
    {
      "inputs": [
        {
          "internalType": "address",
          "name": "patient",
          "type": "address"
        }
      ],
      "name": "getPatientSessions",
      "outputs": [
        {
          "internalType": "uint256[]",
          "name": "",
          "type": "uint256[]"
        }
      ],
      "stateMutability": "view",
      "type": "function"
    },
    {
      "inputs": [
        {
          "internalType": "bytes32",
          "name": "role",
          "type": "bytes32"
        }
      ],
      "name": "getRoleAdmin",
      "outputs": [
        {
          "internalType": "bytes32",
          "name": "",
          "type": "bytes32"
        }
      ],
      "stateMutability": "view",
      "type": "function"
    },
    {
      "inputs": [
        {
          "internalType": "uint256",
          "name": "sessionId",
          "type": "uint256"
        }
      ],
      "name": "getSession",
      "outputs": [
        {
          "components": [
            {
              "internalType": "uint8",
              "name": "status",
              "type": "uint8"
            },
            {
              "internalType": "uint32",
              "name": "doctorId",
              "type": "uint32"
            },
            {
              "internalType": "uint32",
              "name": "sessionId",
              "type": "uint32"
            },
            {
              "internalType": "address",
              "name": "patient",
              "type": "address"
            },
            {
              "internalType": "bytes32",
              "name": "doctorPrescriptionIPFSHash",
              "type": "bytes32"
            },
            {
              "internalType": "uint256",
              "name": "pyusdAmount",
              "type": "uint256"
            },
            {
              "internalType": "uint256",
              "name": "createdAt",
              "type": "uint256"
            }
          ],
          "internalType": "struct Structs.Session",
          "name": "",
          "type": "tuple"
        }
      ],
      "stateMutability": "view",
      "type": "function"
    },
    {
      "inputs": [
        {
          "internalType": "bytes32",
          "name": "role",
          "type": "bytes32"
        },
        {
          "internalType": "address",
          "name": "account",
          "type": "address"
        }
      ],
      "name": "grantRole",
      "outputs": [],
      "stateMutability": "nonpayable",
      "type": "function"
    },
    {
      "inputs": [
        {
          "internalType": "bytes32",
          "name": "role",
          "type": "bytes32"
        },
        {
          "internalType": "address",
          "name": "account",
          "type": "address"
        }
      ],
      "name": "hasRole",
      "outputs": [
        {
          "internalType": "bool",
          "name": "",
          "type": "bool"
        }
      ],
      "stateMutability": "view",
      "type": "function"
    },
    {
      "inputs": [],
      "name": "numSessions",
      "outputs": [
        {
          "internalType": "uint32",
          "name": "",
          "type": "uint32"
        }
      ],
      "stateMutability": "view",
      "type": "function"
    },
    {
      "inputs": [],
      "name": "pyUSDReserveBalance",
      "outputs": [
        {
          "internalType": "uint256",
          "name": "",
          "type": "uint256"
        }
      ],
      "stateMutability": "view",
      "type": "function"
    },
    {
      "inputs": [],
      "name": "pythOracle",
      "outputs": [
        {
          "internalType": "contract IPythPriceConsumer",
          "name": "",
          "type": "address"
        }
      ],
      "stateMutability": "view",
      "type": "function"
    },
    {
      "inputs": [],
      "name": "pyusd",
      "outputs": [
        {
          "internalType": "contract IERC20",
          "name": "",
          "type": "address"
        }
      ],
      "stateMutability": "view",
      "type": "function"
    },
    {
      "inputs": [
        {
          "internalType": "uint32",
          "name": "_sessionID",
          "type": "uint32"
        },
        {
          "internalType": "uint8",
          "name": "_rating",
          "type": "uint8"
        }
      ],
      "name": "rateSession",
      "outputs": [],
      "stateMutability": "nonpayable",
      "type": "function"
    },
    {
      "inputs": [
        {
          "internalType": "uint256",
          "name": "sessionId",
          "type": "uint256"
        },
        {
          "internalType": "bytes32",
          "name": "ipfsHash",
          "type": "bytes32"
        }
      ],
      "name": "releasePayment",
      "outputs": [],
      "stateMutability": "nonpayable",
      "type": "function"
    },
    {
      "inputs": [
        {
          "internalType": "bytes32",
          "name": "role",
          "type": "bytes32"
        },
        {
          "internalType": "address",
          "name": "callerConfirmation",
          "type": "address"
        }
      ],
      "name": "renounceRole",
      "outputs": [],
      "stateMutability": "nonpayable",
      "type": "function"
    },
    {
      "inputs": [
        {
          "internalType": "bytes32",
          "name": "role",
          "type": "bytes32"
        },
        {
          "internalType": "address",
          "name": "account",
          "type": "address"
        }
      ],
      "name": "revokeRole",
      "outputs": [],
      "stateMutability": "nonpayable",
      "type": "function"
    },
    {
      "inputs": [
        {
          "internalType": "bytes4",
          "name": "interfaceId",
          "type": "bytes4"
        }
      ],
      "name": "supportsInterface",
      "outputs": [
        {
          "internalType": "bool",
          "name": "",
          "type": "bool"
        }
      ],
      "stateMutability": "view",
      "type": "function"
    },
    {
      "inputs": [],
      "name": "usdc",
      "outputs": [
        {
          "internalType": "contract IERC20",
          "name": "",
          "type": "address"
        }
      ],
      "stateMutability": "view",
      "type": "function"
    },
    {
      "inputs": [],
      "name": "usdt",
      "outputs": [
        {
          "internalType": "contract IERC20",
          "name": "",
          "type": "address"
        }
      ],
      "stateMutability": "view",
      "type": "function"
    },
    {
      "inputs": [
        {
          "internalType": "uint256",
          "name": "amount",
          "type": "uint256"
        }
      ],
      "name": "withdrawEth",
      "outputs": [],
      "stateMutability": "nonpayable",
      "type": "function"
    },
    {
      "inputs": [
        {
          "internalType": "uint256",
          "name": "amount",
          "type": "uint256"
        }
      ],
      "name": "withdrawPyusdReserve",
      "outputs": [],
      "stateMutability": "nonpayable",
      "type": "function"
    },
    {
      "stateMutability": "payable",
      "type": "receive"
    }
  ],
  "bytecode": "0x610120604052348015610010575f5ffd5b5060405161219b38038061219b83398101604081905261002f9161015d565b600180556001600160a01b0380861660805284811660a05283811660c05282811660e0528116610100526100635f33610099565b5061008e7fa49807205ce4d355092ef5a8a18f56e8913cf4a201fbe287825b095693c2177533610099565b5050505050506101be565b5f828152602081815260408083206001600160a01b038516845290915281205460ff16610139575f838152602081815260408083206001600160a01b03861684529091529020805460ff191660011790556100f13390565b6001600160a01b0316826001600160a01b0316847f2f8788117e7eff1d82e926ec794901d17c78024a50270940304540a733656f0d60405160405180910390a450600161013c565b505f5b92915050565b80516001600160a01b0381168114610158575f5ffd5b919050565b5f5f5f5f5f60a08688031215610171575f5ffd5b61017a86610142565b945061018860208701610142565b935061019660408701610142565b92506101a460608701610142565b91506101b260808701610142565b90509295509295909350565b60805160a05160c05160e05161010051611f3061026b5f395f81816102c601528181610f46015261101401525f818161031801528181610e500152610f1e01525f81816101d5015281816109590152818161103c01528181611079015281816113bb015281816115e1015261170801525f818161061f01528181610cce01528181610dcb01528181610e9e0152610f9401525f818161051601528181610bf201526114ff0152611f305ff3fe608060405260043610610164575f3560e01c80636d9fa34a116100cd578063c311d04911610087578063ee6b010d11610062578063ee6b010d146105da578063f2d0d34a146105f9578063f5d6ac901461060e578063f9a77c3314610641575f5ffd5b8063c311d04914610589578063d547741f146105a8578063de795811146105c7575f5ffd5b80636d9fa34a146104a657806375b238fc146104d257806382cfb2ff1461050557806391d1485414610538578063a1cd102214610557578063a217fddf14610576575f5ffd5b80632f2ff15d1161011e5780632f2ff15d146102965780632f48ab7d146102b557806336568abe146102e85780633e413bee14610307578063402ff0db1461033a5780635ced609f14610475575f5ffd5b806301ffc9a71461016f57806319d13f36146101a357806322e669d3146101c4578063248a9ca31461020f57806324cb130d1461024b578063295b625e14610277575f5ffd5b3661016b57005b5f5ffd5b34801561017a575f5ffd5b5061018e610189366004611998565b610660565b60405190151581526020015b60405180910390f35b3480156101ae575f5ffd5b506101c26101bd3660046119de565b610696565b005b3480156101cf575f5ffd5b506101f77f000000000000000000000000000000000000000000000000000000000000000081565b6040516001600160a01b03909116815260200161019a565b34801561021a575f5ffd5b5061023d610229366004611a18565b5f9081526020819052604090206001015490565b60405190815260200161019a565b348015610256575f5ffd5b5061026a610265366004611a2f565b61088f565b60405161019a9190611a48565b348015610282575f5ffd5b506101c2610291366004611a18565b6108f5565b3480156102a1575f5ffd5b506101c26102b0366004611aa9565b610984565b3480156102c0575f5ffd5b506101f77f000000000000000000000000000000000000000000000000000000000000000081565b3480156102f3575f5ffd5b506101c2610302366004611aa9565b6109ae565b348015610312575f5ffd5b506101f77f000000000000000000000000000000000000000000000000000000000000000081565b348015610345575f5ffd5b50610409610354366004611a18565b6040805160e0810182525f80825260208201819052918101829052606081018290526080810182905260a0810182905260c0810191909152505f90815260036020818152604092839020835160e081018552815460ff81168252610100810463ffffffff9081169483019490945265010000000000810490931694810194909452600160481b9091046001600160a01b0316606084015260018101546080840152600281015460a0840152015460c082015290565b60405161019a91905f60e08201905060ff835116825263ffffffff602084015116602083015263ffffffff604084015116604083015260018060a01b0360608401511660608301526080830151608083015260a083015160a083015260c083015160c083015292915050565b348015610480575f5ffd5b506002546104919063ffffffff1681565b60405163ffffffff909116815260200161019a565b3480156104b1575f5ffd5b506104c56104c0366004611a2f565b6109e6565b60405161019a9190611acc565b3480156104dd575f5ffd5b5061023d7fa49807205ce4d355092ef5a8a18f56e8913cf4a201fbe287825b095693c2177581565b348015610510575f5ffd5b506101f77f000000000000000000000000000000000000000000000000000000000000000081565b348015610543575f5ffd5b5061018e610552366004611aa9565b610a67565b348015610562575f5ffd5b5061026a610571366004611b06565b610a8f565b348015610581575f5ffd5b5061023d5f81565b348015610594575f5ffd5b506101c26105a3366004611a18565b610af6565b3480156105b3575f5ffd5b506101c26105c2366004611aa9565b610bb1565b6101c26105d5366004611b21565b610bd5565b3480156105e5575f5ffd5b506101c26105f4366004611bbc565b61147f565b348015610604575f5ffd5b5061023d60075481565b348015610619575f5ffd5b506101f77f000000000000000000000000000000000000000000000000000000000000000081565b34801561064c575f5ffd5b506101c261065b366004611a18565b611671565b5f6001600160e01b03198216637965db0b60e01b148061069057506301ffc9a760e01b6001600160e01b03198316145b92915050565b60648160ff1611156106ef5760405162461bcd60e51b815260206004820152601d60248201527f526174696e67206e6565647320746f206265747765656e20302d31303000000060448201526064015b60405180910390fd5b63ffffffff8281165f90815260036020818152604092839020835160e081018552815460ff81168252610100810487169382019390935265010000000000830490951693850193909352600160481b90046001600160a01b03166060840181905260018301546080850152600283015460a085015291015460c083015233146107ac5760405162461bcd60e51b815260206004820152600f60248201526e139bdd081d1a19481c185d1a595b9d608a1b60448201526064016106e6565b805160ff166001146107f85760405162461bcd60e51b815260206004820152601560248201527414d95cdcda5bdb881b9bdd0810dbdb5c1b195d1959605a1b60448201526064016106e6565b6020818101805163ffffffff9081165f90815260068452604080822080546001810182559083529185902085830401805460ff898116601f9095166101000a85810291021990911617905592518351908316815291871693820193909352908101919091527f289d739a3fe02d8d6cdb3ee9b63a182b77dd68911ade076876db0c4559b93e009060600160405180910390a1505050565b63ffffffff81165f908152600560209081526040918290208054835181840281018401909452808452606093928301828280156108e957602002820191905f5260205f20905b8154815260200190600101908083116108d5575b50505050509050919050565b5f81116109355760405162461bcd60e51b815260206004820152600e60248201526d125b9d985b1a5908185b5bdd5b9d60921b60448201526064016106e6565b8060075f8282546109469190611c04565b9091555061098190506001600160a01b037f00000000000000000000000000000000000000000000000000000000000000001633308461172f565b50565b5f8281526020819052604090206001015461099e81611796565b6109a883836117a0565b50505050565b6001600160a01b03811633146109d75760405163334bd91960e11b815260040160405180910390fd5b6109e1828261182f565b505050565b63ffffffff81165f908152600660209081526040918290208054835181840281018401909452808452606093928301828280156108e957602002820191905f5260205f20905f905b825461010083900a900460ff16815260206001928301818104948501949093039092029101808411610a2e575094979650505050505050565b5f918252602082815260408084206001600160a01b0393909316845291905290205460ff1690565b6001600160a01b0381165f908152600460209081526040918290208054835181840281018401909452808452606093928301828280156108e957602002820191905f5260205f20908154815260200190600101908083116108d55750505050509050919050565b7fa49807205ce4d355092ef5a8a18f56e8913cf4a201fbe287825b095693c21775610b2081611796565b5f8211610b605760405162461bcd60e51b815260206004820152600e60248201526d125b9d985b1a5908185b5bdd5b9d60921b60448201526064016106e6565b6040515f90339084908381818185875af1925050503d805f8114610b9f576040519150601f19603f3d011682016040523d82523d5f602084013e610ba4565b606091505b50509050806109e1575f5ffd5b5f82815260208190526040902060010154610bcb81611796565b6109a8838361182f565b604051636b81756560e11b815263ffffffff861660048201525f907f00000000000000000000000000000000000000000000000000000000000000006001600160a01b03169063d702eaca906024015f60405180830381865afa158015610c3e573d5f5f3e3d5ffd5b505050506040513d5f823e601f3d908101601f19168201604052610c659190810190611cea565b60408101519091506001600160a01b0316610cb55760405162461bcd60e51b815260206004820152601060248201526f111bd8dd1bdc881b9bdd08199bdd5b9960821b60448201526064016106e6565b60405163d47eed4560e01b81525f906001600160a01b037f0000000000000000000000000000000000000000000000000000000000000000169063d47eed4590610d059088908890600401611e6f565b602060405180830381865afa158015610d20573d5f5f3e3d5ffd5b505050506040513d601f19601f82011682018060405250810190610d449190611e8a565b905080471015610da75760405162461bcd60e51b815260206004820152602860248201527f496e73756666696369656e7420636f6e74726163742045544820666f72206f7260448201526761636c652066656560c01b60648201526084016106e6565b60608201515f803415610e4e57604051638dd410b760e01b81526001600160a01b037f00000000000000000000000000000000000000000000000000000000000000001690638dd410b7908690610e069034908d908d90600401611ea1565b60206040518083038185885af1158015610e22573d5f5f3e3d5ffd5b50505050506040513d601f19601f82011682018060405250810190610e479190611e8a565b91506110d7565b7f00000000000000000000000000000000000000000000000000000000000000006001600160a01b0316866001600160a01b031603610f445760405163fe95d94960e01b81526001600160a01b037f0000000000000000000000000000000000000000000000000000000000000000169063fe95d949908690610ed9908d908d908d90600401611ea1565b60206040518083038185885af1158015610ef5573d5f5f3e3d5ffd5b50505050506040513d601f19601f82011682018060405250810190610f1a9190611e8a565b91507f000000000000000000000000000000000000000000000000000000000000000090506110d7565b7f00000000000000000000000000000000000000000000000000000000000000006001600160a01b0316866001600160a01b03160361103a576040516341b1a2dd60e01b81526001600160a01b037f000000000000000000000000000000000000000000000000000000000000000016906341b1a2dd908690610fcf908d908d908d90600401611ea1565b60206040518083038185885af1158015610feb573d5f5f3e3d5ffd5b50505050506040513d601f19601f820116820180604052508101906110109190611e8a565b91507f000000000000000000000000000000000000000000000000000000000000000090506110d7565b7f00000000000000000000000000000000000000000000000000000000000000006001600160a01b0316866001600160a01b03160361109d57508790507f00000000000000000000000000000000000000000000000000000000000000006110d7565b60405162461bcd60e51b815260206004820152600f60248201526e125b9d985b1a59081c185e5b595b9d608a1b60448201526064016106e6565b828210156111275760405162461bcd60e51b815260206004820152601a60248201527f496e73756666696369656e74207061796d656e742076616c756500000000000060448201526064016106e6565b8260075410156111795760405162461bcd60e51b815260206004820152601a60248201527f496e73756666696369656e74207079555344207265736572766500000000000060448201526064016106e6565b8260075f82825461118a9190611ec3565b9091555050600280545f919082906111a79063ffffffff16611ed6565b91906101000a81548163ffffffff021916908363ffffffff160217905590506040518060e001604052805f60018111156111e3576111e3611bdc565b60ff1681526020018c63ffffffff1681526020018263ffffffff168152602001336001600160a01b031681526020015f5f1b81526020018581526020014281525060035f8363ffffffff1681526020019081526020015f205f820151815f015f6101000a81548160ff021916908360ff1602179055506020820151815f0160016101000a81548163ffffffff021916908363ffffffff1602179055506040820151815f0160056101000a81548163ffffffff021916908363ffffffff1602179055506060820151815f0160096101000a8154816001600160a01b0302191690836001600160a01b031602179055506080820151816001015560a0820151816002015560c0820151816003015590505060045f336001600160a01b03166001600160a01b031681526020019081526020015f2081908060018154018082558091505060019003905f5260205f20015f909163ffffffff1690919091505560055f8c63ffffffff1681526020019081526020015f2081908060018154018082558091505060019003905f5260205f20015f909163ffffffff169091909150555f6001600160a01b0316826001600160a01b0316036113ff57898311156113fa575f6113ac8b85611ec3565b90506113e26001600160a01b037f0000000000000000000000000000000000000000000000000000000000000000163383611898565b8060075f8282546113f39190611ec3565b9091555050505b611414565b6114146001600160a01b03831633308d61172f565b336001600160a01b03168b63ffffffff168263ffffffff167fe8095129c967251282c860a99cbfe307d442706988d9a4adef226a2e5ee912ce89606001518860405161146a929190918252602082015260400190565b60405180910390a45050505050505050505050565b6114876118c9565b5f828152600360205260409020805460ff16156114db5760405162461bcd60e51b815260206004820152601260248201527153657373696f6e206e6f742061637469766560701b60448201526064016106e6565b8054604051636b81756560e11b815261010090910463ffffffff1660048201525f907f00000000000000000000000000000000000000000000000000000000000000006001600160a01b03169063d702eaca906024015f60405180830381865afa15801561154b573d5f5f3e3d5ffd5b505050506040513d5f823e601f3d908101601f191682016040526115729190810190611cea565b60408101519091506001600160a01b031633146115c95760405162461bcd60e51b815260206004820152601560248201527424b73b30b634b2103237b1ba37b91031b0b63632b960591b60448201526064016106e6565b60408101516002830154611607916001600160a01b037f00000000000000000000000000000000000000000000000000000000000000001691611898565b815460ff1916600190811783558201839055604081810151600284015491519182526001600160a01b03169085907f21d71db5be59bb9fa133895586b7404307dd33fb93b16db09dc6f1d9d7d231b09060200160405180910390a3505061166d60018055565b5050565b7fa49807205ce4d355092ef5a8a18f56e8913cf4a201fbe287825b095693c2177561169b81611796565b8160075410156116e45760405162461bcd60e51b8152602060048201526014602482015273496e73756666696369656e742062616c616e636560601b60448201526064016106e6565b8160075f8282546116f59190611ec3565b9091555061166d90506001600160a01b037f0000000000000000000000000000000000000000000000000000000000000000163384611898565b6040516001600160a01b0384811660248301528381166044830152606482018390526109a89186918216906323b872dd906084015b604051602081830303815290604052915060e01b6020820180516001600160e01b0383818316178352505050506118f3565b610981813361195f565b5f6117ab8383610a67565b611828575f838152602081815260408083206001600160a01b03861684529091529020805460ff191660011790556117e03390565b6001600160a01b0316826001600160a01b0316847f2f8788117e7eff1d82e926ec794901d17c78024a50270940304540a733656f0d60405160405180910390a4506001610690565b505f610690565b5f61183a8383610a67565b15611828575f838152602081815260408083206001600160a01b0386168085529252808320805460ff1916905551339286917ff6391f5c32d9c69d2a47ea670b442974b53935d1edc7fd64eb21e047a839171b9190a4506001610690565b6040516001600160a01b038381166024830152604482018390526109e191859182169063a9059cbb90606401611764565b6002600154036118ec57604051633ee5aeb560e01b815260040160405180910390fd5b6002600155565b5f5f60205f8451602086015f885af180611912576040513d5f823e3d81fd5b50505f513d91508115611929578060011415611936565b6001600160a01b0384163b155b156109a857604051635274afe760e01b81526001600160a01b03851660048201526024016106e6565b6119698282610a67565b61166d5760405163e2517d3f60e01b81526001600160a01b0382166004820152602481018390526044016106e6565b5f602082840312156119a8575f5ffd5b81356001600160e01b0319811681146119bf575f5ffd5b9392505050565b803563ffffffff811681146119d9575f5ffd5b919050565b5f5f604083850312156119ef575f5ffd5b6119f8836119c6565b9150602083013560ff81168114611a0d575f5ffd5b809150509250929050565b5f60208284031215611a28575f5ffd5b5035919050565b5f60208284031215611a3f575f5ffd5b6119bf826119c6565b602080825282518282018190525f918401906040840190835b81811015611a7f578351835260209384019390920191600101611a61565b509095945050505050565b6001600160a01b0381168114610981575f5ffd5b80356119d981611a8a565b5f5f60408385031215611aba575f5ffd5b823591506020830135611a0d81611a8a565b602080825282518282018190525f918401906040840190835b81811015611a7f57835160ff16835260209384019390920191600101611ae5565b5f60208284031215611b16575f5ffd5b81356119bf81611a8a565b5f5f5f5f5f60808688031215611b35575f5ffd5b611b3e866119c6565b945060208601359350604086013567ffffffffffffffff811115611b60575f5ffd5b8601601f81018813611b70575f5ffd5b803567ffffffffffffffff811115611b86575f5ffd5b8860208260051b8401011115611b9a575f5ffd5b60209190910193509150611bb060608701611a9e565b90509295509295909350565b5f5f60408385031215611bcd575f5ffd5b50508035926020909101359150565b634e487b7160e01b5f52602160045260245ffd5b634e487b7160e01b5f52601160045260245ffd5b8082018082111561069057610690611bf0565b634e487b7160e01b5f52604160045260245ffd5b60405160c0810167ffffffffffffffff81118282101715611c4e57611c4e611c17565b60405290565b5f82601f830112611c63575f5ffd5b815167ffffffffffffffff811115611c7d57611c7d611c17565b604051601f8201601f19908116603f0116810167ffffffffffffffff81118282101715611cac57611cac611c17565b604052818152838201602001851015611cc3575f5ffd5b8160208501602083015e5f918101602001919091529392505050565b80516119d981611a8a565b5f60208284031215611cfa575f5ffd5b815167ffffffffffffffff811115611d10575f5ffd5b820160c08185031215611d21575f5ffd5b611d29611c2b565b815167ffffffffffffffff811115611d3f575f5ffd5b611d4b86828501611c54565b825250602082015167ffffffffffffffff811115611d67575f5ffd5b611d7386828501611c54565b602083015250611d8560408301611cdf565b6040820152606082810151908201526080808301519082015260a091820151918101919091529392505050565b81835281816020850137505f828201602090810191909152601f909101601f19169091010190565b5f8383855260208501945060208460051b820101835f5b86811015611e6357838303601f19018852813536879003601e19018112611e16575f5ffd5b860160208101903567ffffffffffffffff811115611e32575f5ffd5b803603821315611e40575f5ffd5b611e4b858284611db2565b60209a8b019a90955093909301925050600101611df1565b50909695505050505050565b602081525f611e82602083018486611dda565b949350505050565b5f60208284031215611e9a575f5ffd5b5051919050565b838152604060208201525f611eba604083018486611dda565b95945050505050565b8181038181111561069057610690611bf0565b5f63ffffffff821663ffffffff8103611ef157611ef1611bf0565b6001019291505056fea26469706673582212204dd1d99e2dbfc32e8854ad3959240eb7c03725a3ba19daf08453b4b8885f63cb64736f6c634300081e0033",
  "linkReferences": {},
  "deployedLinkReferences": {},
  "immutableReferences": {
    "9262": [
      {
        "length": 32,
        "start": 1302
      },
      {
        "length": 32,
        "start": 3058
      },
      {
        "length": 32,
        "start": 5375
      }
    ],
    "9265": [
      {
        "length": 32,
        "start": 1567
      },
      {
        "length": 32,
        "start": 3278
      },
      {
        "length": 32,
        "start": 3531
      },
      {
        "length": 32,
        "start": 3742
      },
      {
        "length": 32,
        "start": 3988
      }
    ],
    "9268": [
      {
        "length": 32,
        "start": 469
      },
      {
        "length": 32,
        "start": 2393
      },
      {
        "length": 32,
        "start": 4156
      },
      {
        "length": 32,
        "start": 4217
      },
      {
        "length": 32,
        "start": 5051
      },
      {
        "length": 32,
        "start": 5601
      },
      {
        "length": 32,
        "start": 5896
      }
    ],
    "9271": [
      {
        "length": 32,
        "start": 792
      },
      {
        "length": 32,
        "start": 3664
      },
      {
        "length": 32,
        "start": 3870
      }
    ],
    "9274": [
      {
        "length": 32,
        "start": 710
      },
      {
        "length": 32,
        "start": 3910
      },
      {
        "length": 32,
        "start": 4116
      }
    ]
  },
  "inputSourceName": "project/contracts/ConsultationEscrow/ConsultationEscrow.sol",
  "buildInfoId": "solc-0_8_30-68ba41c9c8137bf91e0318fa6425a3cafe533771"
}