{
  "_format": "hh3-artifact-1",
  "contractName": "MockERC20",
  "sourceName": "contracts/Mocks/MockERC20.sol",
  "abi": [
    {
      "inputs": [
        {
          "internalType": "string",
          "name": "name",
          "type": "string"
        },
        {
          "internalType": "string",
          "name": "symbol",
          "type": "string"
        }
      ],
      "stateMutability": "nonpayable",
      "type": "constructor"
    },
    {
      "inputs": [
        {
          "internalType": "address",
          "name": "spender",
          "type": "address"
        },
        {
          "internalType": "uint256",
          "name": "allowance",
          "type": "uint256"
        },
        {
          "internalType": "uint256",
          "name": "needed",
          "type": "uint256"
        }
      ],
      "name": "ERC20InsufficientAllowance",
      "type": "error"
    },
    {
      "inputs": [
        {
          "internalType": "address",
          "name": "sender",
          "type": "address"
        },
        {
          "internalType": "uint256",
          "name": "balance",
          "type": "uint256"
        },
        {
          "internalType": "uint256",
          "name": "needed",
          "type": "uint256"
        }
      ],
      "name": "ERC20InsufficientBalance",
      "type": "error"
    },
    {
      "inputs": [
        {
          "internalType": "address",
          "name": "approver",
          "type": "address"
        }
      ],
      "name": "ERC20InvalidApprover",
      "type": "error"
    },
    {
      "inputs": [
        {
          "internalType": "address",
          "name": "receiver",
          "type": "address"
        }
      ],
      "name": "ERC20InvalidReceiver",
      "type": "error"
    },
    {
      "inputs": [
        {
          "internalType": "address",
          "name": "sender",
          "type": "address"
        }
      ],
      "name": "ERC20InvalidSender",
      "type": "error"
    },
    {
      "inputs": [
        {
          "internalType": "address",
          "name": "spender",
          "type": "address"
        }
      ],
      "name": "ERC20InvalidSpender",
      "type": "error"
    },
    {
      "inputs": [
        {
          "internalType": "address",
          "name": "owner",
          "type": "address"
        }
      ],
      "name": "OwnableInvalidOwner",
      "type": "error"
    },
    {
      "inputs": [
        {
          "internalType": "address",
          "name": "account",
          "type": "address"
        }
      ],
      "name": "OwnableUnauthorizedAccount",
      "type": "error"
    },
    {
      "anonymous": false,
      "inputs": [
        {
          "indexed": true,
          "internalType": "address",
          "name": "owner",
          "type": "address"
        },
        {
          "indexed": true,
          "internalType": "address",
          "name": "spender",
          "type": "address"
        },
        {
          "indexed": false,
          "internalType": "uint256",
          "name": "value",
          "type": "uint256"
        }
      ],
      "name": "Approval",
      "type": "event"
    },
    {
      "anonymous": false,
      "inputs": [
        {
          "indexed": true,
          "internalType": "address",
          "name": "previousOwner",
          "type": "address"
        },
        {
          "indexed": true,
          "internalType": "address",
          "name": "newOwner",
          "type": "address"
        }
      ],
      "name": "OwnershipTransferred",
      "type": "event"
    },
    {
      "anonymous": false,
      "inputs": [
        {
          "indexed": true,
          "internalType": "address",
          "name": "from",
          "type": "address"
        },
        {
          "indexed": true,
          "internalType": "address",
          "name": "to",
          "type": "address"
        },
        {
          "indexed": false,
          "internalType": "uint256",
          "name": "value",
          "type": "uint256"
        }
      ],
      "name": "Transfer",
      "type": "event"
    },
    {
      "inputs": [
        {
          "internalType": "address",
          "name": "owner",
          "type": "address"
        },
        {
          "internalType": "address",
          "name": "spender",
          "type": "address"
        }
      ],
      "name": "allowance",
      "outputs": [
        {
          "internalType": "uint256",
          "name": "",
          "type": "uint256"
        }
      ],
      "stateMutability": "view",
      "type": "function"
    },
    {
      "inputs": [
        {
          "internalType": "address",
          "name": "spender",
          "type": "address"
        },
        {
          "internalType": "uint256",
          "name": "value",
          "type": "uint256"
        }
      ],
      "name": "approve",
      "outputs": [
        {
          "internalType": "bool",
          "name": "",
          "type": "bool"
        }
      ],
      "stateMutability": "nonpayable",
      "type": "function"
    },
    {
      "inputs": [
        {
          "internalType": "address",
          "name": "account",
          "type": "address"
        }
      ],
      "name": "balanceOf",
      "outputs": [
        {
          "internalType": "uint256",
          "name": "",
          "type": "uint256"
        }
      ],
      "stateMutability": "view",
      "type": "function"
    },
    {
      "inputs": [
        {
          "internalType": "uint256",
          "name": "amount",
          "type": "uint256"
        }
      ],
      "name": "burn",
      "outputs": [],
      "stateMutability": "nonpayable",
      "type": "function"
    },
    {
      "inputs": [],
      "name": "decimals",
      "outputs": [
        {
          "internalType": "uint8",
          "name": "",
          "type": "uint8"
        }
      ],
      "stateMutability": "pure",
      "type": "function"
    },
    {
      "inputs": [
        {
          "internalType": "uint256",
          "name": "amount",
          "type": "uint256"
        }
      ],
      "name": "faucet",
      "outputs": [],
      "stateMutability": "nonpayable",
      "type": "function"
    },
    {
      "inputs": [
        {
          "internalType": "address",
          "name": "to",
          "type": "address"
        },
        {
          "internalType": "uint256",
          "name": "amount",
          "type": "uint256"
        }
      ],
      "name": "mint",
      "outputs": [],
      "stateMutability": "nonpayable",
      "type": "function"
    },
    {
      "inputs": [],
      "name": "name",
      "outputs": [
        {
          "internalType": "string",
          "name": "",
          "type": "string"
        }
      ],
      "stateMutability": "view",
      "type": "function"
    },
    {
      "inputs": [],
      "name": "owner",
      "outputs": [
        {
          "internalType": "address",
          "name": "",
          "type": "address"
        }
      ],
      "stateMutability": "view",
      "type": "function"
    },
    {
      "inputs": [],
      "name": "renounceOwnership",
      "outputs": [],
      "stateMutability": "nonpayable",
      "type": "function"
    },
    {
      "inputs": [],
      "name": "symbol",
      "outputs": [
        {
          "internalType": "string",
          "name": "",
          "type": "string"
        }
      ],
      "stateMutability": "view",
      "type": "function"
    },
    {
      "inputs": [],
      "name": "totalSupply",
      "outputs": [
        {
          "internalType": "uint256",
          "name": "",
          "type": "uint256"
        }
      ],
      "stateMutability": "view",
      "type": "function"
    },
    {
      "inputs": [
        {
          "internalType": "address",
          "name": "to",
          "type": "address"
        },
        {
          "internalType": "uint256",
          "name": "value",
          "type": "uint256"
        }
      ],
      "name": "transfer",
      "outputs": [
        {
          "internalType": "bool",
          "name": "",
          "type": "bool"
        }
      ],
      "stateMutability": "nonpayable",
      "type": "function"
    },
    {
      "inputs": [
        {
          "internalType": "address",
          "name": "from",
          "type": "address"
        },
        {
          "internalType": "address",
          "name": "to",
          "type": "address"
        },
        {
          "internalType": "uint256",
          "name": "value",
          "type": "uint256"
        }
      ],
      "name": "transferFrom",
      "outputs": [
        {
          "internalType": "bool",
          "name": "",
          "type": "bool"
        }
      ],
      "stateMutability": "nonpayable",
      "type": "function"
    },
    {
      "inputs": [
        {
          "internalType": "address",
          "name": "newOwner",
          "type": "address"
        }
      ],
      "name": "transferOwnership",
      "outputs": [],
      "stateMutability": "nonpayable",
      "type": "function"
    }
  ],
  "bytecode": "0x608060405234801561000f575f5ffd5b5060405161108538038061108583398101604081905261002e916102fa565b338282600361003d83826103e3565b50600461004a82826103e3565b5050506001600160a01b03811661007b57604051631e4fbdf760e01b81525f60048201526024015b60405180910390fd5b610084816100ae565b506100a7336100956006600a610596565b6100a290620f42406105ab565b6100ff565b50506105d5565b600580546001600160a01b038381166001600160a01b0319831681179093556040519116919082907f8be0079c531659141344cd1fd0a4f28419497f9722a3daafe3b4186f6b6457e0905f90a35050565b6001600160a01b0382166101285760405163ec442f0560e01b81525f6004820152602401610072565b6101335f8383610137565b5050565b6001600160a01b038316610161578060025f82825461015691906105c2565b909155506101d19050565b6001600160a01b0383165f90815260208190526040902054818110156101b35760405163391434e360e21b81526001600160a01b03851660048201526024810182905260448101839052606401610072565b6001600160a01b0384165f9081526020819052604090209082900390555b6001600160a01b0382166101ed5760028054829003905561020b565b6001600160a01b0382165f9081526020819052604090208054820190555b816001600160a01b0316836001600160a01b03167fddf252ad1be2c89b69c2b068fc378daa952ba7f163c4a11628f55a4df523b3ef8360405161025091815260200190565b60405180910390a3505050565b634e487b7160e01b5f52604160045260245ffd5b5f82601f830112610280575f5ffd5b81516001600160401b038111156102995761029961025d565b604051601f8201601f19908116603f011681016001600160401b03811182821017156102c7576102c761025d565b6040528181528382016020018510156102de575f5ffd5b8160208501602083015e5f918101602001919091529392505050565b5f5f6040838503121561030b575f5ffd5b82516001600160401b03811115610320575f5ffd5b61032c85828601610271565b602085015190935090506001600160401b03811115610349575f5ffd5b61035585828601610271565b9150509250929050565b600181811c9082168061037357607f821691505b60208210810361039157634e487b7160e01b5f52602260045260245ffd5b50919050565b601f8211156103de57805f5260205f20601f840160051c810160208510156103bc5750805b601f840160051c820191505b818110156103db575f81556001016103c8565b50505b505050565b81516001600160401b038111156103fc576103fc61025d565b6104108161040a845461035f565b84610397565b6020601f821160018114610442575f831561042b5750848201515b5f19600385901b1c1916600184901b1784556103db565b5f84815260208120601f198516915b828110156104715787850151825560209485019460019092019101610451565b508482101561048e57868401515f19600387901b60f8161c191681555b50505050600190811b01905550565b634e487b7160e01b5f52601160045260245ffd5b6001815b60018411156104ec578085048111156104d0576104d061049d565b60018416156104de57908102905b60019390931c9280026104b5565b935093915050565b5f8261050257506001610590565b8161050e57505f610590565b8160018114610524576002811461052e5761054a565b6001915050610590565b60ff84111561053f5761053f61049d565b50506001821b610590565b5060208310610133831016604e8410600b841016171561056d575081810a610590565b6105795f1984846104b1565b805f190482111561058c5761058c61049d565b0290505b92915050565b5f6105a460ff8416836104f4565b9392505050565b80820281158282048414176105905761059061049d565b808201808211156105905761059061049d565b610aa3806105e25f395ff3fe608060405234801561000f575f5ffd5b50600436106100f0575f3560e01c8063579158971161009357806395d89b411161006357806395d89b41146101ef578063a9059cbb146101f7578063dd62ed3e1461020a578063f2fde38b14610242575f5ffd5b8063579158971461019157806370a08231146101a4578063715018a6146101cc5780638da5cb5b146101d4575f5ffd5b806323b872dd116100ce57806323b872dd14610147578063313ce5671461015a57806340c10f191461016957806342966c681461017e575f5ffd5b806306fdde03146100f4578063095ea7b31461011257806318160ddd14610135575b5f5ffd5b6100fc610255565b60405161010991906107ec565b60405180910390f35b61012561012036600461083c565b6102e5565b6040519015158152602001610109565b6002545b604051908152602001610109565b610125610155366004610864565b6102fe565b60405160068152602001610109565b61017c61017736600461083c565b610321565b005b61017c61018c36600461089e565b610337565b61017c61019f36600461089e565b610344565b6101396101b23660046108b5565b6001600160a01b03165f9081526020819052604090205490565b61017c6103ba565b6005546040516001600160a01b039091168152602001610109565b6100fc6103cd565b61012561020536600461083c565b6103dc565b6101396102183660046108d5565b6001600160a01b039182165f90815260016020908152604080832093909416825291909152205490565b61017c6102503660046108b5565b6103e9565b60606003805461026490610906565b80601f016020809104026020016040519081016040528092919081815260200182805461029090610906565b80156102db5780601f106102b2576101008083540402835291602001916102db565b820191905f5260205f20905b8154815290600101906020018083116102be57829003601f168201915b5050505050905090565b5f336102f2818585610423565b60019150505b92915050565b5f3361030b858285610435565b6103168585856104b1565b506001949350505050565b61032961050e565b610333828261053b565b5050565b610341338261056f565b50565b6103506006600a610a35565b61035c90612710610a43565b8111156103b05760405162461bcd60e51b815260206004820152601b60248201527f4d6f636b45524332303a20666175636574206c696d69742031306b000000000060448201526064015b60405180910390fd5b610341338261053b565b6103c261050e565b6103cb5f6105a3565b565b60606004805461026490610906565b5f336102f28185856104b1565b6103f161050e565b6001600160a01b03811661041a57604051631e4fbdf760e01b81525f60048201526024016103a7565b610341816105a3565b61043083838360016105f4565b505050565b6001600160a01b038381165f908152600160209081526040808320938616835292905220545f198110156104ab578181101561049d57604051637dc7a0d960e11b81526001600160a01b038416600482015260248101829052604481018390526064016103a7565b6104ab84848484035f6105f4565b50505050565b6001600160a01b0383166104da57604051634b637e8f60e11b81525f60048201526024016103a7565b6001600160a01b0382166105035760405163ec442f0560e01b81525f60048201526024016103a7565b6104308383836106c6565b6005546001600160a01b031633146103cb5760405163118cdaa760e01b81523360048201526024016103a7565b6001600160a01b0382166105645760405163ec442f0560e01b81525f60048201526024016103a7565b6103335f83836106c6565b6001600160a01b03821661059857604051634b637e8f60e11b81525f60048201526024016103a7565b610333825f836106c6565b600580546001600160a01b038381166001600160a01b0319831681179093556040519116919082907f8be0079c531659141344cd1fd0a4f28419497f9722a3daafe3b4186f6b6457e0905f90a35050565b6001600160a01b03841661061d5760405163e602df0560e01b81525f60048201526024016103a7565b6001600160a01b03831661064657604051634a1406b160e11b81525f60048201526024016103a7565b6001600160a01b038085165f90815260016020908152604080832093871683529290522082905580156104ab57826001600160a01b0316846001600160a01b03167f8c5be1e5ebec7d5bd14f71427d1e84f3dd0314c0f7b2291e5b200ac8c7c3b925846040516106b891815260200190565b60405180910390a350505050565b6001600160a01b0383166106f0578060025f8282546106e59190610a5a565b909155506107609050565b6001600160a01b0383165f90815260208190526040902054818110156107425760405163391434e360e21b81526001600160a01b038516600482015260248101829052604481018390526064016103a7565b6001600160a01b0384165f9081526020819052604090209082900390555b6001600160a01b03821661077c5760028054829003905561079a565b6001600160a01b0382165f9081526020819052604090208054820190555b816001600160a01b0316836001600160a01b03167fddf252ad1be2c89b69c2b068fc378daa952ba7f163c4a11628f55a4df523b3ef836040516107df91815260200190565b60405180910390a3505050565b602081525f82518060208401528060208501604085015e5f604082850101526040601f19601f83011684010191505092915050565b80356001600160a01b0381168114610837575f5ffd5b919050565b5f5f6040838503121561084d575f5ffd5b61085683610821565b946020939093013593505050565b5f5f5f60608486031215610876575f5ffd5b61087f84610821565b925061088d60208501610821565b929592945050506040919091013590565b5f602082840312156108ae575f5ffd5b5035919050565b5f602082840312156108c5575f5ffd5b6108ce82610821565b9392505050565b5f5f604083850312156108e6575f5ffd5b6108ef83610821565b91506108fd60208401610821565b90509250929050565b600181811c9082168061091a57607f821691505b60208210810361093857634e487b7160e01b5f52602260045260245ffd5b50919050565b634e487b7160e01b5f52601160045260245ffd5b6001815b600184111561098d578085048111156109715761097161093e565b600184161561097f57908102905b60019390931c928002610956565b935093915050565b5f826109a3575060016102f8565b816109af57505f6102f8565b81600181146109c557600281146109cf576109eb565b60019150506102f8565b60ff8411156109e0576109e061093e565b50506001821b6102f8565b5060208310610133831016604e8410600b8410161715610a0e575081810a6102f8565b610a1a5f198484610952565b805f1904821115610a2d57610a2d61093e565b029392505050565b5f6108ce60ff841683610995565b80820281158282048414176102f8576102f861093e565b808201808211156102f8576102f861093e56fea2646970667358221220ddd2ffa30c172c8ee6ba1f78b512ade1874b01cda64feafea49e873b16b1fc6964736f6c634300081e0033",
  "linkReferences": {},
  "deployedLinkReferences": {},
  "immutableReferences": {},
  "inputSourceName": "project/contracts/Mocks/MockERC20.sol",
  "buildInfoId": "solc-0_8_30-94c10a8d71867c6c6c3ffeb26a56afd6f703fdc6"
}