{
  "_format": "hh3-artifact-1",
  "contractName": "DoctorRegistry",
  "sourceName": "contracts/DoctorRegistry/DoctorRegistry.sol",
  "abi": [
    {
      "inputs": [
        {
          "internalType": "address",
          "name": "_owner",
          "type": "address"
        },
        {
          "internalType": "uint256",
          "name": "_depositFee",
          "type": "uint256"
        },
        {
          "internalType": "uint256",
          "name": "_stakeAmount",
          "type": "uint256"
        },
        {
          "internalType": "address",
          "name": "_depositToken",
          "type": "address"
        }
      ],
      "stateMutability": "nonpayable",
      "type": "constructor"
    },
    {
      "inputs": [],
      "name": "AccessControlBadConfirmation",
      "type": "error"
    },
    {
      "inputs": [
        {
          "internalType": "address",
          "name": "account",
          "type": "address"
        },
        {
          "internalType": "bytes32",
          "name": "neededRole",
          "type": "bytes32"
        }
      ],
      "name": "AccessControlUnauthorizedAccount",
      "type": "error"
    },
    {
      "anonymous": false,
      "inputs": [
        {
          "indexed": false,
          "internalType": "uint256",
          "name": "oldFee",
          "type": "uint256"
        },
        {
          "indexed": false,
          "internalType": "uint256",
          "name": "newFee",
          "type": "uint256"
        }
      ],
      "name": "DepositFeeChanged",
      "type": "event"
    },
    {
      "anonymous": false,
      "inputs": [
        {
          "indexed": false,
          "internalType": "uint32",
          "name": "docID",
          "type": "uint32"
        }
      ],
      "name": "DoctorApproved",
      "type": "event"
    },
    {
      "anonymous": false,
      "inputs": [
        {
          "indexed": false,
          "internalType": "uint32",
          "name": "docID",
          "type": "uint32"
        }
      ],
      "name": "DoctorDenied",
      "type": "event"
    },
    {
      "anonymous": false,
      "inputs": [
        {
          "indexed": false,
          "internalType": "uint32",
          "name": "docID",
          "type": "uint32"
        }
      ],
      "name": "DoctorRegistered",
      "type": "event"
    },
    {
      "anonymous": false,
      "inputs": [
        {
          "indexed": false,
          "internalType": "uint32",
          "name": "docID",
          "type": "uint32"
        }
      ],
      "name": "PendingRegistration",
      "type": "event"
    },
    {
      "anonymous": false,
      "inputs": [
        {
          "indexed": true,
          "internalType": "bytes32",
          "name": "role",
          "type": "bytes32"
        },
        {
          "indexed": true,
          "internalType": "bytes32",
          "name": "previousAdminRole",
          "type": "bytes32"
        },
        {
          "indexed": true,
          "internalType": "bytes32",
          "name": "newAdminRole",
          "type": "bytes32"
        }
      ],
      "name": "RoleAdminChanged",
      "type": "event"
    },
    {
      "anonymous": false,
      "inputs": [
        {
          "indexed": true,
          "internalType": "bytes32",
          "name": "role",
          "type": "bytes32"
        },
        {
          "indexed": true,
          "internalType": "address",
          "name": "account",
          "type": "address"
        },
        {
          "indexed": true,
          "internalType": "address",
          "name": "sender",
          "type": "address"
        }
      ],
      "name": "RoleGranted",
      "type": "event"
    },
    {
      "anonymous": false,
      "inputs": [
        {
          "indexed": true,
          "internalType": "bytes32",
          "name": "role",
          "type": "bytes32"
        },
        {
          "indexed": true,
          "internalType": "address",
          "name": "account",
          "type": "address"
        },
        {
          "indexed": true,
          "internalType": "address",
          "name": "sender",
          "type": "address"
        }
      ],
      "name": "RoleRevoked",
      "type": "event"
    },
    {
      "inputs": [],
      "name": "APPROVER",
      "outputs": [
        {
          "internalType": "bytes32",
          "name": "",
          "type": "bytes32"
        }
      ],
      "stateMutability": "view",
      "type": "function"
    },
    {
      "inputs": [],
      "name": "DEFAULT_ADMIN_ROLE",
      "outputs": [
        {
          "internalType": "bytes32",
          "name": "",
          "type": "bytes32"
        }
      ],
      "stateMutability": "view",
      "type": "function"
    },
    {
      "inputs": [
        {
          "internalType": "uint32",
          "name": "_docID",
          "type": "uint32"
        }
      ],
      "name": "approveDoctor",
      "outputs": [],
      "stateMutability": "nonpayable",
      "type": "function"
    },
    {
      "inputs": [
        {
          "internalType": "uint256",
          "name": "_newDepositFee",
          "type": "uint256"
        }
      ],
      "name": "changeDepositFee",
      "outputs": [],
      "stateMutability": "nonpayable",
      "type": "function"
    },
    {
      "inputs": [
        {
          "internalType": "uint32",
          "name": "_docID",
          "type": "uint32"
        }
      ],
      "name": "denyDoctor",
      "outputs": [],
      "stateMutability": "nonpayable",
      "type": "function"
    },
    {
      "inputs": [],
      "name": "depositFee",
      "outputs": [
        {
          "internalType": "uint256",
          "name": "",
          "type": "uint256"
        }
      ],
      "stateMutability": "view",
      "type": "function"
    },
    {
      "inputs": [],
      "name": "depositToken",
      "outputs": [
        {
          "internalType": "address",
          "name": "",
          "type": "address"
        }
      ],
      "stateMutability": "view",
      "type": "function"
    },
    {
      "inputs": [
        {
          "internalType": "uint32",
          "name": "_docID",
          "type": "uint32"
        }
      ],
      "name": "getDoctor",
      "outputs": [
        {
          "components": [
            {
              "internalType": "string",
              "name": "Name",
              "type": "string"
            },
            {
              "internalType": "string",
              "name": "specialization",
              "type": "string"
            },
            {
              "internalType": "address",
              "name": "doctorAddress",
              "type": "address"
            },
            {
              "internalType": "uint256",
              "name": "consultationFeePerHour",
              "type": "uint256"
            },
            {
              "internalType": "uint256",
              "name": "depositFeeStored",
              "type": "uint256"
            },
            {
              "internalType": "bytes32",
              "name": "legalDocumentsIPFSHash",
              "type": "bytes32"
            }
          ],
          "internalType": "struct Structs.RegStruct",
          "name": "DS",
          "type": "tuple"
        }
      ],
      "stateMutability": "view",
      "type": "function"
    },
    {
      "inputs": [],
      "name": "getNumber1",
      "outputs": [
        {
          "internalType": "uint8",
          "name": "",
          "type": "uint8"
        }
      ],
      "stateMutability": "view",
      "type": "function"
    },
    {
      "inputs": [
        {
          "internalType": "uint32",
          "name": "_docID",
          "type": "uint32"
        }
      ],
      "name": "getPendingDoctor",
      "outputs": [
        {
          "components": [
            {
              "internalType": "string",
              "name": "Name",
              "type": "string"
            },
            {
              "internalType": "string",
              "name": "specialization",
              "type": "string"
            },
            {
              "internalType": "address",
              "name": "doctorAddress",
              "type": "address"
            },
            {
              "internalType": "uint256",
              "name": "consultationFeePerHour",
              "type": "uint256"
            },
            {
              "internalType": "uint256",
              "name": "depositFeeStored",
              "type": "uint256"
            },
            {
              "internalType": "bytes32",
              "name": "legalDocumentsIPFSHash",
              "type": "bytes32"
            }
          ],
          "internalType": "struct Structs.RegStruct",
          "name": "DS",
          "type": "tuple"
        }
      ],
      "stateMutability": "view",
      "type": "function"
    },
    {
      "inputs": [
        {
          "internalType": "bytes32",
          "name": "role",
          "type": "bytes32"
        }
      ],
      "name": "getRoleAdmin",
      "outputs": [
        {
          "internalType": "bytes32",
          "name": "",
          "type": "bytes32"
        }
      ],
      "stateMutability": "view",
      "type": "function"
    },
    {
      "inputs": [
        {
          "internalType": "bytes32",
          "name": "role",
          "type": "bytes32"
        },
        {
          "internalType": "address",
          "name": "account",
          "type": "address"
        }
      ],
      "name": "grantRole",
      "outputs": [],
      "stateMutability": "nonpayable",
      "type": "function"
    },
    {
      "inputs": [
        {
          "internalType": "bytes32",
          "name": "role",
          "type": "bytes32"
        },
        {
          "internalType": "address",
          "name": "account",
          "type": "address"
        }
      ],
      "name": "hasRole",
      "outputs": [
        {
          "internalType": "bool",
          "name": "",
          "type": "bool"
        }
      ],
      "stateMutability": "view",
      "type": "function"
    },
    {
      "inputs": [
        {
          "internalType": "string",
          "name": "name",
          "type": "string"
        },
        {
          "internalType": "string",
          "name": "specialization",
          "type": "string"
        },
        {
          "internalType": "uint256",
          "name": "consultationFees",
          "type": "uint256"
        },
        {
          "internalType": "bytes32",
          "name": "legalDocumentsIPFSHash",
          "type": "bytes32"
        }
      ],
      "name": "registerAsDoctor",
      "outputs": [],
      "stateMutability": "nonpayable",
      "type": "function"
    },
    {
      "inputs": [
        {
          "internalType": "bytes32",
          "name": "role",
          "type": "bytes32"
        },
        {
          "internalType": "address",
          "name": "callerConfirmation",
          "type": "address"
        }
      ],
      "name": "renounceRole",
      "outputs": [],
      "stateMutability": "nonpayable",
      "type": "function"
    },
    {
      "inputs": [
        {
          "internalType": "bytes32",
          "name": "role",
          "type": "bytes32"
        },
        {
          "internalType": "address",
          "name": "account",
          "type": "address"
        }
      ],
      "name": "revokeRole",
      "outputs": [],
      "stateMutability": "nonpayable",
      "type": "function"
    },
    {
      "inputs": [],
      "name": "stakeAmount",
      "outputs": [
        {
          "internalType": "uint256",
          "name": "",
          "type": "uint256"
        }
      ],
      "stateMutability": "view",
      "type": "function"
    },
    {
      "inputs": [
        {
          "internalType": "bytes4",
          "name": "interfaceId",
          "type": "bytes4"
        }
      ],
      "name": "supportsInterface",
      "outputs": [
        {
          "internalType": "bool",
          "name": "",
          "type": "bool"
        }
      ],
      "stateMutability": "view",
      "type": "function"
    },
    {
      "inputs": [],
      "name": "totalPYUsdToBeCollected",
      "outputs": [
        {
          "internalType": "uint256",
          "name": "",
          "type": "uint256"
        }
      ],
      "stateMutability": "view",
      "type": "function"
    },
    {
      "inputs": [],
      "name": "withdrawDepositFees",
      "outputs": [],
      "stateMutability": "nonpayable",
      "type": "function"
    }
  ],
  "bytecode": "0x608060405234801561000f575f5ffd5b5060405161129338038061129383398101604081905261002e9161012e565b6100385f8561006a565b50600591909155600491909155600380546001600160a01b0319166001600160a01b0390921691909117905550610172565b5f828152602081815260408083206001600160a01b038516845290915281205460ff1661010a575f838152602081815260408083206001600160a01b03861684529091529020805460ff191660011790556100c23390565b6001600160a01b0316826001600160a01b0316847f2f8788117e7eff1d82e926ec794901d17c78024a50270940304540a733656f0d60405160405180910390a450600161010d565b505f5b92915050565b80516001600160a01b0381168114610129575f5ffd5b919050565b5f5f5f5f60808587031215610141575f5ffd5b61014a85610113565b602086015160408701519195509350915061016760608601610113565b905092959194509250565b6111148061017f5f395ff3fe608060405234801561000f575f5ffd5b5060043610610127575f3560e01c80639e911f4c116100a9578063d547741f1161006e578063d547741f1461027c578063d702eaca1461028f578063e4780e04146102a2578063e88d9567146102b5578063eb631a3e146102c8575f5ffd5b80639e911f4c1461022a578063a217fddf14610239578063aac0167b14610240578063c206182414610248578063c89039c514610251575f5ffd5b80633d111c7e116100ef5780633d111c7e146101cb57806360c7dc47146101f257806367a52793146101fb57806368c775a31461020457806391d1485414610217575f5ffd5b806301ffc9a71461012b578063045b26ca14610153578063248a9ca3146101735780632f2ff15d146101a357806336568abe146101b8575b5f5ffd5b61013e610139366004610d09565b6102db565b60405190151581526020015b60405180910390f35b610166610161366004610d37565b610311565b60405161014a9190610d88565b610195610181366004610dfd565b5f9081526020819052604090206001015490565b60405190815260200161014a565b6101b66101b1366004610e14565b61048f565b005b6101b66101c6366004610e14565b6104b9565b6101957f5ff1fb0ce9089603e6e193667ed17164e0360a6148f4a39fc194055588948a3181565b61019560055481565b61019560045481565b6101b6610212366004610d37565b6104f1565b61013e610225366004610e14565b6105e1565b6040516001815260200161014a565b6101955f81565b6101b6610609565b61019560065481565b600354610264906001600160a01b031681565b6040516001600160a01b03909116815260200161014a565b6101b661028a366004610e14565b610691565b61016661029d366004610d37565b6106b5565b6101b66102b0366004610e92565b6106eb565b6101b66102c3366004610dfd565b610979565b6101b66102d6366004610d37565b6109c1565b5f6001600160e01b03198216637965db0b60e01b148061030b57506301ffc9a760e01b6001600160e01b03198316145b92915050565b610319610c84565b63ffffffff82165f9081526002602052604090819020815160c0810190925280548290829061034790610f0f565b80601f016020809104026020016040519081016040528092919081815260200182805461037390610f0f565b80156103be5780601f10610395576101008083540402835291602001916103be565b820191905f5260205f20905b8154815290600101906020018083116103a157829003601f168201915b505050505081526020016001820180546103d790610f0f565b80601f016020809104026020016040519081016040528092919081815260200182805461040390610f0f565b801561044e5780601f106104255761010080835404028352916020019161044e565b820191905f5260205f20905b81548152906001019060200180831161043157829003601f168201915b505050918352505060028201546001600160a01b03166020820152600382015460408201526004820154606082015260059091015460809091015292915050565b5f828152602081905260409020600101546104a981610b42565b6104b38383610b4f565b50505050565b6001600160a01b03811633146104e25760405163334bd91960e11b815260040160405180910390fd5b6104ec8282610bde565b505050565b7f5ff1fb0ce9089603e6e193667ed17164e0360a6148f4a39fc194055588948a3161051b81610b42565b5f61052583610311565b905080608001516005546105399190610f5b565b60065f8282546105499190610f6e565b909155505063ffffffff83165f9081526002602052604081209061056d8282610cbf565b61057a600183015f610cbf565b506002810180546001600160a01b03191690555f600382018190556004820181905560059091015560405163ffffffff841681527ff35a873043c43433149cab41159dd00d7093698db04e3e15a06efe451ef6dcb7906020015b60405180910390a1505050565b5f918252602082815260408084206001600160a01b0393909316845291905290205460ff1690565b5f61061381610b42565b60035460065460405163a9059cbb60e01b815233600482015260248101919091526001600160a01b039091169063a9059cbb906044016020604051808303815f875af1158015610665573d5f5f3e3d5ffd5b505050506040513d601f19601f820116820180604052508101906106899190610f81565b50505f600655565b5f828152602081905260409020600101546106ab81610b42565b6104b38383610bde565b6106bd610c84565b63ffffffff82165f9081526001602052604090819020815160c0810190925280548290829061034790610f0f565b8061074c5760405162461bcd60e51b815260206004820152602660248201527f4c6567616c20646f63756d656e7473204950465320686173682069732072657160448201526575697265642160d01b60648201526084015b60405180910390fd5b6007805463ffffffff16905f61076183610fa0565b91906101000a81548163ffffffff021916908363ffffffff160217905550506040518060c0016040528087878080601f0160208091040260200160405190810160405280939291908181526020018383808284375f92019190915250505090825250604080516020601f8801819004810282018101909252868152918101919087908790819084018382808284375f92018290525093855250503360208085019190915260408085018890526004546060860152608090940186905260075463ffffffff1683526002905250208151819061083c9082611023565b50602082015160018201906108519082611023565b506040820151816002015f6101000a8154816001600160a01b0302191690836001600160a01b03160217905550606082015181600301556080820151816004015560a0820151816005015590505060045460065f8282546108b29190610f6e565b90915550506003546005546040516323b872dd60e01b815233600482015230602482015260448101919091526001600160a01b03909116906323b872dd906064016020604051808303815f875af115801561090f573d5f5f3e3d5ffd5b505050506040513d601f19601f820116820180604052508101906109339190610f81565b5060075460405163ffffffff90911681527fb7bd07164a0ae8c4ed8104c94fbf1ac6d7d59d54d4a09c271bb1d2c7e266ce729060200160405180910390a1505050505050565b5f61098381610b42565b600480549083905560408051828152602081018590527f6be5411ea11f30380402ca68832d060d744cbc5f62d2344495c10256ba93904a91016105d4565b7f5ff1fb0ce9089603e6e193667ed17164e0360a6148f4a39fc194055588948a316109eb81610b42565b5f6109f583610311565b63ffffffff84165f908152600160205260409020815191925082918190610a1c9082611023565b5060208201516001820190610a319082611023565b506040828101516002830180546001600160a01b0319166001600160a01b039283161790556060840151600380850191909155608080860151600486015560a090950151600594850155549185015193850151925491169263a9059cbb929091610a9b9190610f5b565b6040516001600160e01b031960e085901b1681526001600160a01b03909216600483015260248201526044016020604051808303815f875af1158015610ae3573d5f5f3e3d5ffd5b505050506040513d601f19601f82011682018060405250810190610b079190610f81565b5060075460405163ffffffff90911681527f7842f9ed4ae1033ceda5b21e7b98923b117e4d87472124fd10615dbc58b14f1f906020016105d4565b610b4c8133610c47565b50565b5f610b5a83836105e1565b610bd7575f838152602081815260408083206001600160a01b03861684529091529020805460ff19166001179055610b8f3390565b6001600160a01b0316826001600160a01b0316847f2f8788117e7eff1d82e926ec794901d17c78024a50270940304540a733656f0d60405160405180910390a450600161030b565b505f61030b565b5f610be983836105e1565b15610bd7575f838152602081815260408083206001600160a01b0386168085529252808320805460ff1916905551339286917ff6391f5c32d9c69d2a47ea670b442974b53935d1edc7fd64eb21e047a839171b9190a450600161030b565b610c5182826105e1565b610c805760405163e2517d3f60e01b81526001600160a01b038216600482015260248101839052604401610743565b5050565b6040518060c0016040528060608152602001606081526020015f6001600160a01b031681526020015f81526020015f81526020015f81525090565b508054610ccb90610f0f565b5f825580601f10610cda575050565b601f0160209004905f5260205f2090810190610b4c91905b80821115610d05575f8155600101610cf2565b5090565b5f60208284031215610d19575f5ffd5b81356001600160e01b031981168114610d30575f5ffd5b9392505050565b5f60208284031215610d47575f5ffd5b813563ffffffff81168114610d30575f5ffd5b5f81518084528060208401602086015e5f602082860101526020601f19601f83011685010191505092915050565b602081525f825160c06020840152610da360e0840182610d5a565b90506020840151601f19848303016040850152610dc08282610d5a565b91505060018060a01b03604085015116606084015260608401516080840152608084015160a084015260a084015160c08401528091505092915050565b5f60208284031215610e0d575f5ffd5b5035919050565b5f5f60408385031215610e25575f5ffd5b8235915060208301356001600160a01b0381168114610e42575f5ffd5b809150509250929050565b5f5f83601f840112610e5d575f5ffd5b50813567ffffffffffffffff811115610e74575f5ffd5b602083019150836020828501011115610e8b575f5ffd5b9250929050565b5f5f5f5f5f5f60808789031215610ea7575f5ffd5b863567ffffffffffffffff811115610ebd575f5ffd5b610ec989828a01610e4d565b909750955050602087013567ffffffffffffffff811115610ee8575f5ffd5b610ef489828a01610e4d565b979a9699509760408101359660609091013595509350505050565b600181811c90821680610f2357607f821691505b602082108103610f4157634e487b7160e01b5f52602260045260245ffd5b50919050565b634e487b7160e01b5f52601160045260245ffd5b8181038181111561030b5761030b610f47565b8082018082111561030b5761030b610f47565b5f60208284031215610f91575f5ffd5b81518015158114610d30575f5ffd5b5f63ffffffff821663ffffffff8103610fbb57610fbb610f47565b60010192915050565b634e487b7160e01b5f52604160045260245ffd5b601f8211156104ec57805f5260205f20601f840160051c81016020851015610ffd5750805b601f840160051c820191505b8181101561101c575f8155600101611009565b5050505050565b815167ffffffffffffffff81111561103d5761103d610fc4565b6110518161104b8454610f0f565b84610fd8565b6020601f821160018114611083575f831561106c5750848201515b5f19600385901b1c1916600184901b17845561101c565b5f84815260208120601f198516915b828110156110b25787850151825560209485019460019092019101611092565b50848210156110cf57868401515f19600387901b60f8161c191681555b50505050600190811b0190555056fea264697066735822122015ec84dbf2e385d60490cd6f1c5181a1c956c46906c5a6b50389357be5ddc31864736f6c634300081e0033",
  "linkReferences": {},
  "deployedLinkReferences": {},
  "immutableReferences": {},
  "inputSourceName": "project/contracts/DoctorRegistry/DoctorRegistry.sol",
  "buildInfoId": "solc-0_8_30-a15ac6ffc0a4bbebc495a3a7c0ab95a5805fbc6b"
}