{
  "_format": "hh3-artifact-1",
  "contractName": "PythPriceConsumer",
  "sourceName": "contracts/Oracle/PythPriceConsumer.sol",
  "abi": [
    {
      "inputs": [
        {
          "internalType": "address",
          "name": "_pyth",
          "type": "address"
        }
      ],
      "stateMutability": "nonpayable",
      "type": "constructor"
    },
    {
      "inputs": [],
      "name": "ETH_USD_PRICE_ID",
      "outputs": [
        {
          "internalType": "bytes32",
          "name": "",
          "type": "bytes32"
        }
      ],
      "stateMutability": "view",
      "type": "function"
    },
    {
      "inputs": [],
      "name": "MAX_PRICE_AGE",
      "outputs": [
        {
          "internalType": "uint256",
          "name": "",
          "type": "uint256"
        }
      ],
      "stateMutability": "view",
      "type": "function"
    },
    {
      "inputs": [],
      "name": "PYUSD_USD_PRICE_ID",
      "outputs": [
        {
          "internalType": "bytes32",
          "name": "",
          "type": "bytes32"
        }
      ],
      "stateMutability": "view",
      "type": "function"
    },
    {
      "inputs": [],
      "name": "USDC_USD_PRICE_ID",
      "outputs": [
        {
          "internalType": "bytes32",
          "name": "",
          "type": "bytes32"
        }
      ],
      "stateMutability": "view",
      "type": "function"
    },
    {
      "inputs": [],
      "name": "USDT_USD_PRICE_ID",
      "outputs": [
        {
          "internalType": "bytes32",
          "name": "",
          "type": "bytes32"
        }
      ],
      "stateMutability": "view",
      "type": "function"
    },
    {
      "inputs": [
        {
          "internalType": "uint256",
          "name": "ethAmount",
          "type": "uint256"
        },
        {
          "internalType": "bytes[]",
          "name": "priceUpdateData",
          "type": "bytes[]"
        }
      ],
      "name": "getEthToPyusd",
      "outputs": [
        {
          "internalType": "uint256",
          "name": "pyusdAmount",
          "type": "uint256"
        }
      ],
      "stateMutability": "payable",
      "type": "function"
    },
    {
      "inputs": [
        {
          "internalType": "bytes[]",
          "name": "updateData",
          "type": "bytes[]"
        }
      ],
      "name": "getUpdateFee",
      "outputs": [
        {
          "internalType": "uint256",
          "name": "fee",
          "type": "uint256"
        }
      ],
      "stateMutability": "view",
      "type": "function"
    },
    {
      "inputs": [
        {
          "internalType": "uint256",
          "name": "usdcAmount",
          "type": "uint256"
        },
        {
          "internalType": "bytes[]",
          "name": "priceUpdateData",
          "type": "bytes[]"
        }
      ],
      "name": "getUsdcToPyusd",
      "outputs": [
        {
          "internalType": "uint256",
          "name": "pyusdAmount",
          "type": "uint256"
        }
      ],
      "stateMutability": "payable",
      "type": "function"
    },
    {
      "inputs": [
        {
          "internalType": "uint256",
          "name": "usdtAmount",
          "type": "uint256"
        },
        {
          "internalType": "bytes[]",
          "name": "priceUpdateData",
          "type": "bytes[]"
        }
      ],
      "name": "getUsdtToPyusd",
      "outputs": [
        {
          "internalType": "uint256",
          "name": "pyusdAmount",
          "type": "uint256"
        }
      ],
      "stateMutability": "payable",
      "type": "function"
    },
    {
      "inputs": [],
      "name": "pyth",
      "outputs": [
        {
          "internalType": "contract IPyth",
          "name": "",
          "type": "address"
        }
      ],
      "stateMutability": "view",
      "type": "function"
    }
  ],
  "bytecode": "0x60a060405234801561000f575f5ffd5b506040516110c13803806110c183398101604081905261002e916100a9565b6001600160a01b0381166100985760405162461bcd60e51b815260206004820152602760248201527f507974685072696365436f6e73756d65723a20696e76616c69642070797468206044820152666164647265737360c81b606482015260840160405180910390fd5b6001600160a01b03166080526100d6565b5f602082840312156100b9575f5ffd5b81516001600160a01b03811681146100cf575f5ffd5b9392505050565b608051610f7f6101425f395f81816101dc0152818161022d015281816102fa0152818161039d015281816104b3015281816105e6015281816106aa0152818161074d0152818161086101528181610934015281816109b701528181610a7b0152610b1e0152610f7f5ff3fe60806040526004361061008f575f3560e01c80638dd410b7116100575780638dd410b7146101855780639d7f7e8614610198578063d47eed45146101ac578063f98d06f0146101cb578063fe95d94914610216575f5ffd5b806304b06f90146100935780631277142f146100d95780633ae6604a1461010c57806341b1a2dd1461013f5780635bbf749114610152575b5f5ffd5b34801561009e575f5ffd5b506100c67f2b89b9dc8fdf9f34709a5b106b472f0f39bb6ca9ce04b0fd7f2e971688e2e53b81565b6040519081526020015b60405180910390f35b3480156100e4575f5ffd5b506100c67f3f9c88e4cc2f33c57c5d0897ea89c26d90ef4ff9cc442a20d1d71c0a7e7f9e4681565b348015610117575f5ffd5b506100c67feaa020c61cc479712813461ce153894a96a6c00b21ed0cfc2798d1f9a9e9c94a81565b6100c661014d366004610c3e565b610229565b34801561015d575f5ffd5b506100c67fff61491a931112ddf1bd8147cd1b641375f79f5825126d665480874634fd0ace81565b6100c6610193366004610c3e565b6105e2565b3480156101a3575f5ffd5b506100c6603c81565b3480156101b7575f5ffd5b506100c66101c6366004610c86565b61091b565b3480156101d6575f5ffd5b506101fe7f000000000000000000000000000000000000000000000000000000000000000081565b6040516001600160a01b0390911681526020016100d0565b6100c6610224366004610c3e565b6109b3565b5f5f7f00000000000000000000000000000000000000000000000000000000000000006001600160a01b031663d47eed4585856040518363ffffffff1660e01b8152600401610279929190610ced565b602060405180830381865afa158015610294573d5f5f3e3d5ffd5b505050506040513d601f19601f820116820180604052508101906102b89190610d8c565b9050803410156102e35760405162461bcd60e51b81526004016102da90610da3565b60405180910390fd5b604051631df3cbc560e31b81526001600160a01b037f0000000000000000000000000000000000000000000000000000000000000000169063ef9e5e289083906103339088908890600401610ced565b5f604051808303818588803b15801561034a575f5ffd5b505af115801561035c573d5f5f3e3d5ffd5b505060405163052571af60e51b81527f2b89b9dc8fdf9f34709a5b106b472f0f39bb6ca9ce04b0fd7f2e971688e2e53b6004820152603c60248201525f93507f00000000000000000000000000000000000000000000000000000000000000006001600160a01b0316925063a4ae35e09150604401608060405180830381865afa1580156103ec573d5f5f3e3d5ffd5b505050506040513d601f19601f820116820180604052508101906104109190610e1a565b90505f815f015160070b136104755760405162461bcd60e51b815260206004820152602560248201527f507974685072696365436f6e73756d65723a20696e76616c6964205553445420604482015264707269636560d81b60648201526084016102da565b60405163052571af60e51b81527f3f9c88e4cc2f33c57c5d0897ea89c26d90ef4ff9cc442a20d1d71c0a7e7f9e466004820152603c60248201525f907f00000000000000000000000000000000000000000000000000000000000000006001600160a01b03169063a4ae35e090604401608060405180830381865afa158015610500573d5f5f3e3d5ffd5b505050506040513d601f19601f820116820180604052508101906105249190610e1a565b90505f815f015160070b1361054b5760405162461bcd60e51b81526004016102da90610ea6565b81515f90620f4240906105689067ffffffffffffffff168a610f00565b6105729190610f17565b825190915067ffffffffffffffff1661058e82620f4240610f00565b6105989190610f17565b9450833411156105d757336108fc6105b08634610f36565b6040518115909202915f818181858888f193505050501580156105d5573d5f5f3e3d5ffd5b505b505050509392505050565b5f5f7f00000000000000000000000000000000000000000000000000000000000000006001600160a01b031663d47eed4585856040518363ffffffff1660e01b8152600401610632929190610ced565b602060405180830381865afa15801561064d573d5f5f3e3d5ffd5b505050506040513d601f19601f820116820180604052508101906106719190610d8c565b9050803410156106935760405162461bcd60e51b81526004016102da90610da3565b604051631df3cbc560e31b81526001600160a01b037f0000000000000000000000000000000000000000000000000000000000000000169063ef9e5e289083906106e39088908890600401610ced565b5f604051808303818588803b1580156106fa575f5ffd5b505af115801561070c573d5f5f3e3d5ffd5b505060405163052571af60e51b81527fff61491a931112ddf1bd8147cd1b641375f79f5825126d665480874634fd0ace6004820152603c60248201525f93507f00000000000000000000000000000000000000000000000000000000000000006001600160a01b0316925063a4ae35e09150604401608060405180830381865afa15801561079c573d5f5f3e3d5ffd5b505050506040513d601f19601f820116820180604052508101906107c09190610e1a565b90505f815f015160070b136108235760405162461bcd60e51b8152602060048201526024808201527f507974685072696365436f6e73756d65723a20696e76616c69642045544820706044820152637269636560e01b60648201526084016102da565b60405163052571af60e51b81527f3f9c88e4cc2f33c57c5d0897ea89c26d90ef4ff9cc442a20d1d71c0a7e7f9e466004820152603c60248201525f907f00000000000000000000000000000000000000000000000000000000000000006001600160a01b03169063a4ae35e090604401608060405180830381865afa1580156108ae573d5f5f3e3d5ffd5b505050506040513d601f19601f820116820180604052508101906108d29190610e1a565b90505f815f015160070b136108f95760405162461bcd60e51b81526004016102da90610ea6565b81515f90670de0b6b3a7640000906105689067ffffffffffffffff168a610f00565b60405163d47eed4560e01b81525f906001600160a01b037f0000000000000000000000000000000000000000000000000000000000000000169063d47eed459061096b9086908690600401610ced565b602060405180830381865afa158015610986573d5f5f3e3d5ffd5b505050506040513d601f19601f820116820180604052508101906109aa9190610d8c565b90505b92915050565b5f5f7f00000000000000000000000000000000000000000000000000000000000000006001600160a01b031663d47eed4585856040518363ffffffff1660e01b8152600401610a03929190610ced565b602060405180830381865afa158015610a1e573d5f5f3e3d5ffd5b505050506040513d601f19601f82011682018060405250810190610a429190610d8c565b905080341015610a645760405162461bcd60e51b81526004016102da90610da3565b604051631df3cbc560e31b81526001600160a01b037f0000000000000000000000000000000000000000000000000000000000000000169063ef9e5e28908390610ab49088908890600401610ced565b5f604051808303818588803b158015610acb575f5ffd5b505af1158015610add573d5f5f3e3d5ffd5b505060405163052571af60e51b81527feaa020c61cc479712813461ce153894a96a6c00b21ed0cfc2798d1f9a9e9c94a6004820152603c60248201525f93507f00000000000000000000000000000000000000000000000000000000000000006001600160a01b0316925063a4ae35e09150604401608060405180830381865afa158015610b6d573d5f5f3e3d5ffd5b505050506040513d601f19601f82011682018060405250810190610b919190610e1a565b90505f815f015160070b136104755760405162461bcd60e51b815260206004820152602560248201527f507974685072696365436f6e73756d65723a20696e76616c6964205553444320604482015264707269636560d81b60648201526084016102da565b5f5f83601f840112610c06575f5ffd5b50813567ffffffffffffffff811115610c1d575f5ffd5b6020830191508360208260051b8501011115610c37575f5ffd5b9250929050565b5f5f5f60408486031215610c50575f5ffd5b83359250602084013567ffffffffffffffff811115610c6d575f5ffd5b610c7986828701610bf6565b9497909650939450505050565b5f5f60208385031215610c97575f5ffd5b823567ffffffffffffffff811115610cad575f5ffd5b610cb985828601610bf6565b90969095509350505050565b81835281816020850137505f828201602090810191909152601f909101601f19169091010190565b602080825281018290525f6040600584901b830181019083018583601e1936839003015b87821015610d7f57868503603f190184528235818112610d2f575f5ffd5b890160208101903567ffffffffffffffff811115610d4b575f5ffd5b803603821315610d59575f5ffd5b610d64878284610cc5565b96505050602083019250602084019350600182019150610d11565b5092979650505050505050565b5f60208284031215610d9c575f5ffd5b5051919050565b6020808252602a908201527f507974685072696365436f6e73756d65723a20696e73756666696369656e74206040820152697570646174652066656560b01b606082015260800190565b805167ffffffffffffffff81168114610e04575f5ffd5b919050565b8051600381900b8114610e04575f5ffd5b5f6080828403128015610e2b575f5ffd5b506040516080810167ffffffffffffffff81118282101715610e5b57634e487b7160e01b5f52604160045260245ffd5b6040528251600781900b8114610e6f575f5ffd5b8152610e7d60208401610ded565b6020820152610e8e60408401610e09565b60408201526060928301519281019290925250919050565b60208082526026908201527f507974685072696365436f6e73756d65723a20696e76616c696420707955534460408201526520707269636560d01b606082015260800190565b634e487b7160e01b5f52601160045260245ffd5b80820281158282048414176109ad576109ad610eec565b5f82610f3157634e487b7160e01b5f52601260045260245ffd5b500490565b818103818111156109ad576109ad610eec56fea264697066735822122098596ef58c3fb0932ffc6f72d74db35c058f0d6d4aaf6489e7845918630c99af64736f6c634300081e0033",
  "linkReferences": {},
  "deployedLinkReferences": {},
  "immutableReferences": {
    "102": [
      {
        "length": 32,
        "start": 476
      },
      {
        "length": 32,
        "start": 557
      },
      {
        "length": 32,
        "start": 762
      },
      {
        "length": 32,
        "start": 925
      },
      {
        "length": 32,
        "start": 1203
      },
      {
        "length": 32,
        "start": 1510
      },
      {
        "length": 32,
        "start": 1706
      },
      {
        "length": 32,
        "start": 1869
      },
      {
        "length": 32,
        "start": 2145
      },
      {
        "length": 32,
        "start": 2356
      },
      {
        "length": 32,
        "start": 2487
      },
      {
        "length": 32,
        "start": 2683
      },
      {
        "length": 32,
        "start": 2846
      }
    ]
  },
  "inputSourceName": "project/contracts/Oracle/PythPriceConsumer.sol",
  "buildInfoId": "solc-0_8_30-ebcdb8b1e0bdd6424c83d692b022d92de41eac08"
}